{
  "contractName": "Utility",
  "abi": [
    {
      "inputs": [
        {
          "internalType": "address",
          "name": "wallet",
          "type": "address"
        },
        {
          "internalType": "address[]",
          "name": "tokenAddresses",
          "type": "address[]"
        }
      ],
      "name": "getBalances",
      "outputs": [
        {
          "components": [
            {
              "internalType": "address",
              "name": "token",
              "type": "address"
            },
            {
              "internalType": "uint256",
              "name": "amount",
              "type": "uint256"
            }
          ],
          "internalType": "struct Utility.Token[]",
          "name": "",
          "type": "tuple[]"
        }
      ],
      "stateMutability": "view",
      "type": "function",
      "constant": true
    },
    {
      "inputs": [],
      "name": "testMethod",
      "outputs": [
        {
          "internalType": "uint256",
          "name": "",
          "type": "uint256"
        }
      ],
      "stateMutability": "view",
      "type": "function",
      "constant": true
    }
  ],
  "bytecode": "0x608060405234801561001057600080fd5b506103bc806100206000396000f3fe608060405234801561001057600080fd5b50600436106100365760003560e01c80636a385ae91461003b578063b9c3d0a514610064575b600080fd5b61004e610049366004610200565b610073565b60405161005b91906102d8565b60405180910390f35b604051607b815260200161005b565b60606000825167ffffffffffffffff811115610091576100916101ea565b6040519080825280602002602001820160405280156100d657816020015b60408051808201909152600080825260208201528152602001906001900390816100af5790505b50905060005b83518110156101c65760008482815181106100f9576100f9610330565b60209081029190910101516040516370a0823160e01b81526001600160a01b0388811660048301529192506000918316906370a0823190602401602060405180830381865afa158015610150573d6000803e3d6000fd5b505050506040513d601f19601f820116820180604052508101906101749190610346565b90506040518060400160405280836001600160a01b03168152602001828152508484815181106101a6576101a6610330565b6020026020010181905250505080806101be9061035f565b9150506100dc565b509392505050565b80356001600160a01b03811681146101e557600080fd5b919050565b634e487b7160e01b600052604160045260246000fd5b6000806040838503121561021357600080fd5b61021c836101ce565b915060208084013567ffffffffffffffff8082111561023a57600080fd5b818601915086601f83011261024e57600080fd5b813581811115610260576102606101ea565b8060051b604051601f19603f83011681018181108582111715610285576102856101ea565b6040529182528482019250838101850191898311156102a357600080fd5b938501935b828510156102c8576102b9856101ce565b845293850193928501926102a8565b8096505050505050509250929050565b602080825282518282018190526000919060409081850190868401855b8281101561032357815180516001600160a01b031685528601518685015292840192908501906001016102f5565b5091979650505050505050565b634e487b7160e01b600052603260045260246000fd5b60006020828403121561035857600080fd5b5051919050565b60006001820161037f57634e487b7160e01b600052601160045260246000fd5b506001019056fea2646970667358221220a5bd4979da9e11e397fa95cbdf335ef12d8e92c8b974842d440425caaa6dcf2364736f6c634300080f0033",
  "immutableReferences": {},
  "source": "pragma solidity >=0.4.22 <0.9.0;\n\n// Declare interface to call balanceOf function from token contract.\ninterface IERC20 {\n    function balanceOf(address owner)\n        external\n        view\n        returns (uint256 balance);\n}\n\ncontract Utility {\n    struct Token {\n        address token;\n        uint256 amount;\n    }\n\n    function getBalances(address wallet, address[] memory tokenAddresses)\n        public\n        view\n        returns (Token[] memory)\n    {\n        Token[] memory balances = new Token[](tokenAddresses.length);\n\n        for (uint256 i = 0; i < tokenAddresses.length; i++) {\n            address token = tokenAddresses[i];\n            uint256 amount = IERC20(token).balanceOf(wallet);\n            balances[i] = Token(token, amount);\n        }\n        return balances;\n    }\n\n    function testMethod() public view returns (uint) {\n        return 123;\n    }\n}\n",
  "sourcePath": "/Users/HP/Documents/Intern/code-challenge/src/problem5/contracts/Utility.sol",
  "compiler": {
    "name": "solc",
    "version": "0.8.15+commit.e14f2714.Emscripten.clang"
  },
  "schemaVersion": "3.4.10",
  "updatedAt": "2022-11-19T09:37:02.635Z",
  "networkType": "ethereum",
  "devdoc": {
    "kind": "dev",
    "methods": {},
    "version": 1
  },
  "userdoc": {
    "kind": "user",
    "methods": {},
    "version": 1
  }
}